:020000040800F2
:10000000A86F00208502000897620008EB550008E1
:10001000956200088D0E0008259100080000000080
:10002000000000000000000000000000C501000802
:10003000811B00080000000021020008696C000814
:100040009F0200089F0200089F0200089F0200080C
:100050009F0200089F0200089F0200089F020008FC
:100060009F0200089F0200089F0200089F020008EC
:100070006D1900089F020008791900089F02000806
:100080009F0200089F0200089F0200089F020008CC
:10009000E51000089F0200089F0200089F02000868
:1000A0009F0200089F0200089F0200089F020008AC
:1000B0009F0200089F0200089F0200089F0200089C
:1000C0009F0200089F0200089F0200089F0200088C
:1000D0009F0200081D7500089F0200089F0200088B
:1000E0009F0200089F0200089F0200089F0200086C
:1000F0009F0200089F0200089F0200089F0200085C
:100100009F0200089F0200089F0200089F0200084B
:100110009F0200089F020008396D00089F02000836
:100120009F02000885190008871900089F0200082F
:100130009F0200089F0200089F0200089F0200081B
:10014000A91100089F0200089F0200089962000898
:100150009F0200089F0200089F02000849750008DE
:100160009F0200089F0200089F0200089F020008EB
:100170009F0200089F0200089F0200080000000084
:100180009F0200089F0200089F0200089F020008CB
:100190009F0200089F0200089F0200089F020008BB
:1001A00000000000000000009F020008DFF810D0EF
:1001B00000F064FB00480047E7AC0008AFF30080A4
:1001C000A86F00202C4B19680868B0E8F04F80F346
:1001D0000988BFF36F8F4FF0000080F311887047DC
:1001E0000000000008480068006880F308884FF0AD
:1001F000000080F3148862B661B6BFF34F8FBFF37F
:100200006F8F00DF00BF00BF08ED00E0DFF80C00DB
:10021000016841F470010160704700BF88ED00E0A3
:10022000EFF30980BFF36F8F134B1A681EF0100FA6
:1002300008BF20ED108A20E9F04F106009B44FF09C
:10024000500080F31188BFF34F8FBFF36F8F0BF017
:10025000CDFA4FF0000080F3118809BC19680868D6
:10026000B0E8F04F1EF0100F08BFB0EC108A80F31A
:100270000988BFF36F8F704748000020EFF30580B7
:10028000704700000648804706480047FEE7FEE743
:10029000FEE7FEE7FEE7FEE7FEE7FEE7FEE7FEE736
:1002A000296D0008AD0100082DE9F05F054600202A
:1002B00092469B4688460646814640241BE02846D7
:1002C00041464746224600F0B1F953465A46C01A05
:1002D000914110D311461846224600F098F92D1A84
:1002E00067EB01084F4622460120002100F08FF9FC
:1002F00017EB00094E41201EA4F10104DFDC484643
:1003000031462A464346BDE8F09F40EA01039B0779
:1003100003D009E008C9121F08C0042AFAD203E07A
:1003200011F8013B00F8013B521EF9D27047D2B2DE
:1003300001E000F8012B491EFBD270470022F6E7CE
:1003400010B513460A4604461946FFF7F0FF20464B
:1003500010BD2DE9FE4F804681EA0300C00F0C4618
:10036000009021F0004123F00045B8EB0200A941C4
:1003700005D24046214690461C460B46024623F0D5
:100380000040104347D0270DC7F30A00C3F30A51BA
:100390000290401A019040286BDAC3F3130040F436
:1003A000801B0098924620B10023D2EB030A63EB36
:1003B0000B0B01985946C0F14002504600F027F956
:1003C00006460D4650465946019A00F03FF910EB9B
:1003D00008006141002487EA115284EAE7731A4356
:1003E00040D0009A62B3019A012A4FEA075215DC05
:1003F000001B61EB02014FF0004202EA0752CDE917
:100400000042001C41F5801132462B4600F076F97F
:1004100003B0BDE8F08F40462146F9E7001B61EBD1
:100420000201001C41F5801300185B412018A2F561
:10043000001747EB030140EAD570B6196D4111E092
:100440006D084FEA360645EAC0754FEA0752001BB1
:1004500061EB0201001C41F5801149084FEA3000B0
:100460000019514132462B4603B0BDE8F04F00F071
:1004700036B90098012240000023D0EB020263EB62
:10048000E073009821464FEAE074B8EB000061EB9E
:100490000401E9E783F000435BE781F0004158E79E
:1004A0002DE9FE4F81EA030404F0004421F00041ED
:1004B00000944FF0000B23F0004350EA01045ED09B
:1004C00052EA03045BD0C3F30A54C1F30A552C4427
:1004D000A4F2F3340194A0FB0254C1F3130141F4DC
:1004E0008011C3F3130343F4801301FB024400FBA8
:1004F000034E840A970A44EA815447EA8357A4FBCF
:10050000076802958D0A05FB07854FEA932C04FBCB
:100510000C542705029D4FEA065847EA1637B5EBFB
:1005200008056EEB070C870E920E47EA811742EA28
:100530008312A7FB0201B6EB0B0164EB00042B0D49
:1005400043EA0C335E1844EB1C50DA465146E7FB95
:100550000201C5F313044FEA0B3343EA14534FEA85
:100560000432019C43EA0603A4F10C040294009CAB
:10057000CDE900B400F0C2F803B0BDE8F08F002070
:100580000146F9E700F0004230F000400AD0C10D0A
:1005900001F56071C0F3160042EA0151C20840073C
:1005A0001143704700200146704701F0004330B40A
:1005B00021F0004150EA010206D00A0DA2F5607256
:1005C000C1F31301002A02DC30BC00207047440F45
:1005D00044EAC104C100E01830BC00EBC25000F096
:1005E00047B830B50B46014600202022012409E01F
:1005F00021FA02F59D4205D303FA02F5491B04FADC
:1006000002F52844151EA2F10102F1DC30BD202ABA
:1006100004DB203A00FA02F1002070479140C2F159
:10062000200320FA03F3194390407047202A04DB8B
:10063000203A21FA02F00021704721FA02F3D0405B
:10064000C2F120029140084319467047202A06DB78
:10065000CB17203A41FA02F043EAE07306E041FA90
:1006600002F3D040C2F1200291400843194670477E
:100670000029A8BF7047401C490008BF20F00100B6
:10068000704710B4B0FA80FC00FA0CF050EA010494
:1006900004BF10BC704749B1CCF1200421FA04F426
:1006A00011FA0CF118BF012121430843A3EB0C01FF
:1006B000CB1D4FEA00614FEA102042BF002010BC62
:1006C000704700EBC35010440029A4BF10BC704712
:1006D000401C490008BF20F0010010BC704710B555
:1006E000141E73F1000408DA401C41F10001921855
:1006F0005B411A4301D120F0010010BD2DE9F04DFE
:1007000092469B4611B1B1FA81F202E0B0FA80F252
:1007100020329046FFF77BFF04460F4640EA0A006E
:1007200041EA0B0153465A46084313D0114653EA97
:10073000010019D0C8F140025046FFF777FF054687
:100740000E46504659464246FFF761FF084305D022
:10075000012004E020463946BDE8F08D0020054325
:1007600046EAE0762C4337430A986305E40AA0EB97
:1007700008000022FD0A44EA47540A3002D500204E
:100780000146E9E7010510196941DDE9084500194D
:100790006941BDE8F04DA2E72DE9F04D81EA03047F
:1007A00004F0004B21F0004514464FF0000A23F0FE
:1007B000004150EA050220D054EA01021DD0C5F3E1
:1007C0000A570246C5F31303C1F31300C1F30A56D7
:1007D00040F4801543F48013A7EB0608101BD6469F
:1007E00008F2FD3873EB050002D308F1010801E0BF
:1007F00092185B41B8F1000F03DA00200146BDE812
:10080000F08D00204FF48011064684460EE0171B41
:1008100073EB050705D3121B63EB050306434CEA94
:10082000010C49084FEA300092185B4150EA010779
:10083000EDD152EA030012D082EA040083EA0501F6
:10084000084305D0101BAB4106D20122002306E06D
:1008500000224FF0004302E06FF0010253101AEB48
:1008600006004CEB085110EB0A0041EB0B01BDE810
:10087000F04DFFF734BF002070470000064C074DD5
:1008800006E0E06840F0010394E807009847103460
:10089000AC42F6D3FFF78EFCFCC800081CC9000868
:1008A0000EB5C10F80EAE0700844CA07002140F28B
:1008B00033438DE80E000A460B46FFF71FFF03B0D7
:1008C00000BD0EB540F2334102910021CDE9001187
:1008D0000A460B46FFF712FF03B000BD70B5C1F327
:1008E0000A5201F000450024C1F3130140F2FF3326
:1008F00041F480119A4201DA002070BD40F2334386
:100900009A42A2F2334203DC5242FFF78FFE00E02C
:1009100090402C43F1D0404270BD70B58C1810F857
:10092000015B15F0070301D110F8013B2A1106D134
:1009300010F8012B03E010F8016B01F8016B5B1E4E
:10094000F9D12B0705D40023521E0DD401F8013B29
:10095000FAE710F8013BCB1A921C03E013F8015B95
:1009600001F8015B521EF9D5A142D8D3002070BD19
:1009700030B50C4605000CD0022C0AD90548A11E42
:100980000288284601F008FE291901F8020D000A24
:10099000487030BD0C04002030B50C46050008D06E
:1009A000022C06D9FF22611E01F00CFE291901F864
:1009B000010C30BD10B5044604F1440190ED243A19
:1009C000274891EC030A0C39D1EC031A01F0A2FB81
:1009D000234801F0F3F801F007FCD4ED181A21497F
:1009E000C4ED1B1A84ED181AC4ED190A84ED1A0A15
:1009F000D4ED110AB1EE080A80EE802A84ED1E2A99
:100A0000D4ED120A80EE802A84ED1F2AD4ED130A59
:100A100080EE802AF7EE000A84ED202A94ED170A72
:100A200084ED210A31EE610A10EE100A884204D9E1
:100A300094ED1D0A30EE200A08E010EE100A0A4973
:100A400094ED1D0A884203DD30EE600A84ED1D0A34
:100A5000DFED060A00EE201A84ED1C1A10BD00001E
:100A6000584A0020000096C3000096430000B4439B
:100A700070B504462DED068B90F89500002844D102
:100A800000254FF47A76204600F0D8F894ED0E0A4F
:100A900001207AEE80AA94ED0F0A38EE008A94EDD8
:100AA000100A78EE808A94ED110A39EE009A94EDDE
:100AB000120A79EE809A94ED130A3AEE00AA02F037
:100AC00085FB6D1CB542DEDBB7EE001A9FED100A08
:100AD0000120CAEE800AC4ED050AC8EE000AC4ED82
:100AE000060AC8EE800A70EEC10AC4ED070AC9EE14
:100AF000000AC4ED080AC9EE800AC4ED090ACAEE6C
:100B0000000AC4ED0A0A84F89500BDEC068B70BD9E
:100B100000007A4470B50E4604460146154628206A
:100B200000F08AF9022002F051FB0A21292000F08E
:100B300083F9022002F04AFB0121642000F07CF9D5
:100B4000022002F043FB44F08001252000F074F9FC
:100B5000022002F03BFB3146262000F06DF9022016
:100B600002F034FB0321342000F066F9022002F089
:100B70002DFB0321672000F05FF9022002F026FB25
:100B800081212A2000F058F9062002F01FFB45F0D1
:100B90008001272000F050F9BDE87040022002F0EB
:100BA00015BB000030B585B0002414220B496846FF
:100BB000FFF7ABFB4FEA0D0505EB4400417815F854
:100BC000140000F039F9012002F000FB641CE4B2CB
:100BD0000A2CF1D304F00AFD05B030BDE0C20008D4
:100BE000F8B5134F15460E460446002240213846FC
:100BF00002F018FC0F4944F0800037240870891C6B
:100C00004A1E08700123891E0B48009403F0AEFEB3
:100C100008492B463246891C0748009403F0A6FE7B
:100C2000044601224021384602F0FCFB2046F8BD74
:100C300000140240440300200C080020F0B587B0E7
:100C4000044602F0F5FB00EE100AF8EE400A9FEDB4
:100C5000601A0E2202A980EE810A3B2084ED220A4E
:100C6000D4ED230A70EE600AC4ED240A84ED230A51
:100C7000FFF7B6FF84F89600062269464920FFF781
:100C8000AFFFBDF8080040BA06B22680BDF80A00E2
:100C900000EE106A40BA05B26580BDF80C00F8EEAF
:100CA000C00A40BA03B2A380BDF80E0040BA02B237
:100CB0006282BDF8100040BA01B2E180BDF81200B6
:100CC00040BA00B22081BDF814707FBA3FB267818C
:100CD000DDF800C0C4F80CC0BDF804C0A4F810C012
:100CE0009FED3C0A20EE801A00EE905AF8EEE00AE2
:100CF00060EE801A00EE903AF8EEE00A20EE802ACC
:100D000000EE101ADFED340AB8EEC00AC0EE202A59
:100D100000EE100A04F13800B8EEC00A80EE203A66
:100D200000EE107AB8EEC00AC0EE203A80EC061A47
:100D3000B4F90C0000EE100AB8EEC00A84ED140AF3
:100D4000B4F90E0000EE100AB8EEC00A84ED150AE0
:100D5000B4F9100000EE100AB8EEC00A84ED160ACD
:100D600000EE102AF8EEC00A9FED1C4A80EE840ABD
:100D7000F3EE050A30EE200A84ED170A94F8950088
:100D8000012823D194ED050A31EE400A84ED0E0AC4
:100D900094ED060A31EEC00A84ED0F0A94ED070ABD
:100DA00032EE400A84ED100A94ED080A32EEC00AD1
:100DB00084ED110A94ED090A33EE400A84ED120A1B
:100DC00094ED0A0A33EEC00A84ED130A07B0F0BDB1
:100DD00000007A44000080396F1283415CEFA64323
:100DE00090ED180A80ED1B0A9FED030A80ED1C0AA6
:100DF00080ED1D0A704700000000000008490A4805
:100E0000084BD1F8842000689A4202DA41F2873117
:100E100003E0012281F894200021816370470000E3
:100E2000C049002000004842640800200421014815
:100E300004F06EB964080020F8B5114F0E46044660
:100E400000224021384602F0EDFA04F07F000D4CFC
:100E50003725621C20700123511E0B48009503F0BA
:100E600085FD2670621C0123511E0748009503F082
:100E70007DFD01224021384602F0D4FA0020F8BD61
:100E800000140240440300200C080020FEE700008C
:100E9000434924280A6870D2DFE800F01215181BB5
:100EA0001E2124272A2D303336393C3F4245484BFA
:100EB0004E5154575A5D606366696C707376797CE5
:100EC00040F6ED6068E040F6186065E040F64C5092
:100ED00062E040F68E405FE040F6D9305CE040F6DC
:100EE0002F3059E040F68F2056E040F6F61053E0E0
:100EF00040F6681050E04FF40E604DE040F661009F
:100F00004AE04FF4FD6047E040F2767044E040F282
:100F10000C7041E040F2A6603EE040F247603BE0EA
:100F200040F2EC5038E040F2975035E040F2475044
:100F300032E040F2FB402FE040F2B4402CE040F2BF
:100F40006F4029E040F2314026E040F2F33023E0E8
:100F500040F2BB3020E040F286301DE040F25230DB
:100F60001AE04FF4497017E040F2F52014E040F227
:100F7000CB2011E04FF429700EE00FE040F27D200D
:100F80000AE040F25A2007E040F2372004E04FF434
:100F9000067001E040F2F910D062C86070470000AE
:100FA000F40800200021014804F0B2B8F408002041
:100FB0007047000010B5054C22685063084602F0E7
:100FC00005F921680020486310BD0000F4080020E6
:100FD00010B50B20FFF75CFF4FF48774C821204643
:100FE000FFF7E8FF0720FFF753FFC8212046FFF770
:100FF000E1FF0E20FFF74CFFC8212046FFF7DAFF84
:101000000720FFF745FFC8212046FFF7D3FF0E203A
:10101000FFF73EFFC8212046FFF7CCFF1020FFF767
:1010200037FFC8212046FFF7C5FF0E20FFF730FF2E
:10103000C8212046FFF7BEFF0720FFF729FFC82180
:101040002046FFF7B7FF1020FFF722FFC8212046F8
:10105000FFF7B0FF0E20FFF71BFFC8212046FFF768
:10106000A9FF0720FFF714FFC8212046FFF7A2FFC2
:101070000E20FFF70DFF4FF4FA712046FFF79AFF9D
:10108000BDE810404FF47A7002F0A0B810B50C2003
:10109000FFF7FEFE4FF4877464212046FFF78AFFB6
:1010A000322002F093F80C20FFF7F2FE6421204674
:1010B000FFF780FF322002F089F80C20FFF7E8FEEE
:1010C00064212046FFF776FF322002F07FF81320DC
:1010D000FFF7DEFE2046BDE810404FF47A71FFF7BF
:1010E00069BF0000064800684069800706D50548CA
:1010F000012243680448016801481847704700000E
:1011000068070020C40300201C0000208EB0204E81
:10111000204D4FF0FF3940F206270DF124084A46D2
:1011200005A9F0690AF0C2FD059CBC4206D1142253
:1011300041466846FFF7E9F817481EE0A4F500703D
:10114000113809D0103003280DD8142241466846C2
:10115000FFF7DBF8114810E0142241466846FFF71C
:10116000D4F80F4809E0A4F500710B390CD1142212
:1011700041466846FFF7C9F80A48DDE90612D0F88B
:1011800000C02046089BE0476888401C6880C6E78E
:1011900000000020E8030020840300205403002006
:1011A000900300206C030020064800684069800717
:1011B00006D50548022243680448016801481847DB
:1011C0007047000090070020C4030020200000208A
:1011D0008EB0194E194D4FF0FF3940F201270DF135
:1011E00024084A4605A9306A0AF060FD059CBC4205
:1011F00008D0A4F50071023904D0A4F500710A39B1
:1012000009D015E0142241466846FFF77EF80C48E5
:10121000D0F808C007E0142241466846FFF775F889
:101220000848D0F804C0DDE906122046089BE047D4
:101230006888401C6880D4E700000020EE0300208E
:10124000540300206C0300203EB50D0A069C8DF867
:1012500004508DF80510110A8DF80610190A8DF842
:1012600008108DF80930210A8DF80A1001A90091A3
:10127000014606488DF807208DF80B4040F2FF1319
:101280000022006800F0B4F83EBD000024000020F9
:101290003EB50D0A069C8DF804508DF80510110A14
:1012A0008DF80610190A8DF808108DF80930210AFA
:1012B0008DF80A1001A90091014606488DF8072013
:1012C0008DF80B404FF400730022006800F090F896
:1012D0003EBD0000240000200EB50A0A8DF804204F
:1012E0008DF8051001A90091014604484FF40473DC
:1012F0000022006800F07CF80EBD000024000020F1
:101300003EB50D0A069C8DF804508DF80510110AA3
:101310008DF80610190A8DF808108DF80930210A89
:101320008DF80A1001A90091014606488DF80720A2
:101330008DF80B4040F2FF230022006800F058F8BF
:101340003EBD00002400002010B50446491EC8B26E
:1013500000EB400101EB00100D49002201EB800180
:1013600001230A614A614A62C1E906230A604A60B0
:101370008A600B622046CA6001F062FB204601F0E1
:1013800065FD2068416941F00201416110BD000026
:10139000044F0020F0B5521E0E46D5B205EB4501B4
:1013A00001EB0512114993B001EB820404F128010D
:1013B0000F460A4604F14403002101F0C7FB05EB88
:1013C000C502684600EB820539461C222846FEF716
:1013D0009CFFD4E91101C5E90701002329461A46FB
:1013E00030460AF003FC13B0F0BD0000044F0020AB
:1013F00010B58AB00C9C009192B102930021CDE906
:101400000321082205928DF8181021680791616860
:10141000002308911A4669460AF038FB0AB010BD4D
:101420000193EBE78AB0084E6C464FF0FF3707ADEB
:101430003A466946706A0AF039FC01232A46211DA2
:10144000009801F08FFAF3E70000002000207047B9
:101450000020704710B500220449054806F06AFADA
:101460000449034806F059FA002010BD785C0020BA
:101470009C4F00207854002010B50146034806F028
:101480004CFA024806F022FA002010BD9C4F0020C2
:1014900000207047094A10B5D2F8BC22D2F81422B5
:1014A0000AB1012010BD0A460146044806F042FA7E
:1014B000BDE81040014806F0B7BA00009C4F00207C
:1014C00070B504462DED068B01688D489FED8D0AA1
:1014D000DFED8D0A8D4DDFED8E8AB0F90000A0F5AD
:1014E000C850FA3831B101291AD002297ED0032917
:1014F0007DD1F0E001EE100A8648B8EEC11A21EE67
:10150000000A60EE200A94ED040A84ED010A94EDCD
:10151000050A84ED020A2968B0EE680A8847D7E018
:1015200001EE100AB8EEC11A21EE000A20EE208A60
:1015300018EE100AFFF726F841EC100B08F0B8FC83
:10154000B0EE409AF0EE609A6069FFF71BF853EC3A
:10155000192BFEF7A5FF41EC190B18EE100AFFF747
:1015600011F841EC100B08F063F8B0EE40AAF0EE71
:1015700060AA2069FFF706F853EC1A2BFEF790FFDC
:1015800053EC192BFEF786FFFFF70FF8606018EE9B
:10159000100AFEF7F7FF41EC100B08F049F8B0EE27
:1015A000401AF0EE601AB0EE419AF0EE619A60696E
:1015B000FEF7E8FF53EC192BFEF772FF41EC190B15
:1015C00018EE100AFEF7DEFF41EC100B08F070FC7D
:1015D000B0EE40AAF0EE60AA2069FEF7D3FF53EC0C
:1015E0001A2BFEF75DFF53EC192B01E008E07EE0BB
:1015F000FEF7AFFEFEF7D9FFA060C4ED038A76E0E8
:1016000001EE100AB8EEC11A21EE000A20EE208A7F
:1016100018EE100AFEF7B6FF41EC100B08F048FC7C
:10162000B0EE409AF0EE609A6069FEF7ABFF53ECC3
:10163000192BFEF735FF41EC190B18EE100AFEF7D7
:10164000A1FF41EC100B07F0F3FFB0EE40AAF0EE63
:1016500060AA2069FEF796FF53EC1A2BFEF720FFD5
:1016600053EC192BFEF716FFFEF79FFF606018EE94
:10167000100AFEF787FF41EC100B07F0D9FFB0EE20
:10168000409AF0EE609A6069FEF77CFF53EC192BEC
:10169000FEF706FF41EC190B18EE100AFEF772FF79
:1016A00041EC100B08F004FCB0EE408AF0EE608ACA
:1016B0002069FEF767FF53EC182BFEF7F1FE53ECA1
:1016C000192BFEF746FEFEF770FFB1EE040AA0608C
:1016D00084ED030A0BE0C4ED018AC4ED028AC4ED77
:1016E000038AA9680B488847A9680B4888470B48B4
:1016F00041682046BDEC068BBDE8704008470000FD
:101700007C4B00200000343D35FA8E3CFC0200206A
:1017100000000000040100203C010020CC0000205B
:101720001C490A781C49012A1DD0002A1AD191F8B7
:10173000362091F83330D21A00EE102AF8EEC00AA3
:101740009FED160A60EE800AC0ED040A11F82D2FF5
:10175000C978511A00EE901AF8EEE00A20EE800ADD
:1017600080ED050A7047B1F91E2000EE102AF8EE50
:10177000C00A9FED0B0A80EE801A80ED041AB1F9C1
:10178000201000EE901AF8EEE00A80EE801A80ED4C
:10179000051A7047C800002060490020CDCC0C40DD
:1017A0000000964330B50020094A0124034600BFDB
:1017B00052F820104D884DB181F8043052F82010B5
:1017C000401CC0B24B800228F2D330BD0C71F5E74B
:1017D000E00300200548B0F85C1021B15FF0000183
:1017E00080F85E1070470121FAE700006049002090
:1017F00004480021828B12B18177818370470122D6
:101800008277FAE79C4B002004480021828B12B1BA
:1018100081778183704701228277FAE77C4B002031
:1018200004480021828B12B18177818370470122A5
:101830008277FAE7BC4B002030B50020074B01242B
:10184000024600BF03EB40118D8B2DB18A77401CFF
:101850008A830428F6DB30BD8C77F8E7BC4A002089
:1018600030B50020074B0124024600BF03EB4011B6
:101870008D8B2DB18A77401C8A830228F6DB30BD20
:101880008C77F8E73C4B002004480021828A12B193
:1018900081758182704701228275FAE7DC4B002056
:1018A0009FED0A0A80ED000A80ED010A80ED040A2E
:1018B00080ED030A80ED020A80ED080A80ED090A36
:1018C00080ED0A0A80ED0B0A70470000000000005E
:1018D0009FED030A002180ED000A017170470000AE
:1018E00000000000F0B518480078002807D1174A1A
:1018F000174C184992F8443013B120600860F0BDCD
:10190000134B92F8477001261D68124B1B6837B1C4
:10191000012D01D1012BF0D026600E60F0BD92F8B0
:101920004A702FB1022D01D1022BE6D00220E4E74C
:1019300092F859100029F1D007490A7B0AB10873BF
:10194000F0BD0E73F0BD0000C8000020604900200B
:10195000044900203449002050490020024A002157
:101960001160516004F0D8BB30000020014801F044
:1019700099BA0000AC0A0020014801F093BA0000B7
:101980004C0A00207047704701681823CAB2103A09
:10199000B2FBF3F2054B6FF30901032A9B5CC365AD
:1019A00000D9091D8165084670470000C0C20008C3
:1019B00010B5014600208B698A6A4FF0C07453B19C
:1019C000B3F5005F15D072B1012A0CD0022A0AD0FB
:1019D000032A09D104E01AB1012A06D0022A03D150
:1019E000C96AC90100D5012010BDC96AA142FAD057
:1019F00010BD002AF7D0012AF2D0022AF3D0032A20
:101A0000F3D010BD30B50468256825F48025256025
:101A1000046863608368402B036803D099600068A2
:101A2000C26030BD9A600068C16030BDF0B500286A
:101A30005FD08178C278890941EA820102792D4C10
:101A400041EA8221C1F30A06A6F58066E6830179A0
:101A50004279490841EAC211C1F30A05A5F580653A
:101A600025840188C1F30A03A3F580636384417868
:101A70008278C90841EA4211C1F30A02A2F58062E4
:101A8000A284018AC1F30A01A1F580612185477909
:101A9000BF0984F826704779C7F3011784F82770C7
:101AA000C788E78207892783077B07B10127A776C5
:101AB000477B07B10127E776C0896085002014368F
:101AC000282E00D8E0831435282D00D82084143324
:101AD000282B00D860841432282A00D8A08414311E
:101AE000282900D8208503F095FF34F85C0F401CAE
:101AF0002080F0BD6049002010B50446806B00686E
:101B0000016821F001010160A06B006840680428B1
:101B100002D10748FFF78AFFA16B162009684860C9
:101B2000A06B0068016841F00101016010BD000078
:101B30006049002038B5016800250A684A680092AB
:101B4000CA6842F40052CA600168CA6842F01002D2
:101B5000CA600446094A90F83E0020280DD1162399
:101B6000A262A38525642168A06B091D01F0D4FA47
:101B70002068416941F04001416138BD6049002061
:101B8000704772B6FEE70000DFED0A0A9FED0A1A01
:101B900070EE600A10EE900AB0F18B4F02DD30EE6D
:101BA000410A704710EE900A10F16A5FF9D930EEE1
:101BB000010A704700D0CF4500000046103090EC7D
:101BC000040A70471FB5064B04460FCB8DE80F0083
:101BD0006946204600F092F8204600F003F81FBD49
:101BE000F4C20008114A10B51ECA00F1100CB2EE82
:101BF000040A8CE81E000021016241620122816218
:101C000080F82C2080ED0C0A8163C163016441647B
:101C10008164C16480F85010416580F8581080F8E4
:101C20005910C16580F8601010BD000004C30008A1
:101C300070B505462DED048BB6EE008AB0EE409AE5
:101C400090ED061AF0EE480A90ED070A41EE410ABF
:101C5000D0ED041A40EE400A21EE800AD0ED051ABC
:101C600001EE810A07F08EFBF0EE408AB0EE490AE1
:101C700000F098FA38EEC00A002460EE088AB0EE50
:101C8000680A07F039FDB0EE408AB0EE680A08F045
:101C900073F905F11000B1EE401AD0EC041AB0EE61
:101CA000480A00EE904A60EE213A20EE024A60EEC9
:101CB000224A20EE030A40EEC23A00EE904A00EEBD
:101CC000A20A40EEC34A00EEA14A40EEE23A00EE1C
:101CD000C20A40EEA14A00EE834A41EE433A01EEC9
:101CE000210A41EE024A01EE624A85ED070A1035EB
:101CF000C5EC033ABDEC048B70BD000070B50D4619
:101D00002DED028BF6EE008A91ED000A9FED268AFA
:101D100080ED000A91ED010A0446B5EEC00AF1EE2D
:101D200010FA28D0E86830B300F03CFA08F024F943
:101D300020EE280AF0EE000A07F086FD84ED010A85
:101D400095ED020AB5EEC00AF1EE10FA16D0E86879
:101D5000A0B100F027FA08F00FF920EE280AF0EE03
:101D6000000A07F071FD84ED020AE868E06094F86B
:101D70002C0030B109E084ED018AE1E784ED028AAC
:101D8000F3E794ED000A84ED0C0A94ED000AF2EEFC
:101D9000040A30EEC00AF0EE080A80EE201A84ED44
:101DA0000D1ABDEC028B70BDFFFF7F7F2DE9F04F58
:101DB00004462DED0E8B203083B00025B0EE64AAD2
:101DC000F0EE43AAB0EE63BAF0EE44BAB0EE40CA09
:101DD000C0EC031AF0EE60CA94F82C00B0EE41DAC1
:101DE000012814D194ED0C0AD4ED0D0A00EECA0AB4
:101DF00084ED0C0AD4ED000AB4EEE00AF1EE10FA1C
:101E000005D2C4ED0C0A84F82C5084F8585094ED97
:101E1000070AB6EE008AD4ED040A94ED053A94ED73
:101E2000061AF0EE488A23EE009A50EEA08A61EE80
:101E3000009AA94600EEC19AB0EE621A40EE839A6B
:101E400040EE008AF0EE420AB0EE610ACA46012670
:101E5000D34684F85060F0EE41EAB0EE60EAF0EE6E
:101E600040DA00F040FAE8BBE168606D884211D9C1
:101E7000D4E90580E1692769CDE900012046FFF733
:101E8000B1FEDDE900016565C4E90601C4E9047835
:101E900084F85860B0EE6E1AF0EE4E0AB0EE6D0A9D
:101EA00000F046FAF0EE682AB0EE692AF0EE491A20
:101EB00000F0F7F904F1380080EC030A94F82C00E4
:101EC000012808D000F022FAD4ED010AB4EEE00AAD
:101ED000F1EE10FA20D804F1380007C881468A468E
:101EE000934600E009E084F85050606D0A2801D361
:101EF0000A2100E00021401A60652F460120B84603
:101F000084F85900B0EE6B1AF0EE4B0AB0EE6A0A94
:101F100000F0E9F918B169E0606D401CECE784F865
:101F20006050E168E06D2E46884214D9F0EE6B2ACD
:101F3000B0EE4B2AF0EE6A1AB0EE681AF0EE690ABB
:101F4000B0EE490A00F006F92046FFF771FE0120C5
:101F5000E66584F86000D4ED060A94ED040AD4ED39
:101F6000051A94ED071A10EE008A61EEA0DA20EE51
:101F700081EAF0EE6B2AB0EE4B2A40EE01DA00EE79
:101F800061EA00EEA08AF0EE6A1AB0EE681AF0EE8E
:101F9000690AB0EE490A00F084F900F0C9F9F0EEE0
:101FA0004E2AB0EE482AF0EE6D1A00F07AF904F1EC
:101FB000440080EC030A94F82C00012808D000F0BB
:101FC000A5F9D4ED020AB4EEE00AF1EE10FA7CD8DD
:101FD000D4E91270656C804684F85960E06D0A2877
:101FE00001D30A2100E00021401AE065B6EE000AA4
:101FF00000F0D8F8F0EE401AB0EE4D1AF0EE6C0A90
:10200000B0EE4C0A00F08DF9B0EE409AF0EE608A26
:10201000B0EE418A02EE908A02EE107A01EE905AFA
:1020200001EE10BA00EE90AA00EE109A00F032F91C
:10203000D4ED0C1A00F075F9F0EE412AB0EE602AEA
:10204000F0EE401AB0EE481AF0EE680AB0EE490A17
:1020500000F020F9D4ED048A94ED058A94ED069AF7
:10206000D4ED079AF0EE4A1A00F05BF928EE402A08
:1020700068EE802A68EEA01A09EE602A49EE012A6D
:1020800048EE411A09EEC12A28EE811A49EEE02AEB
:1020900049EE801A08EE201A78EE220A79EE211A0B
:1020A00009EE401A38EE820AF0EE608AB0EE618ADC
:1020B00084ED040AC4ED050A39EE811AC4ED061A4E
:1020C000F0EE409A84ED071A00E020E029EEA90A1C
:1020D000B0EE419A08EEA80A08EE080A09EE090ACD
:1020E00000F068F829EE801A68EE800A68EE001A9F
:1020F00029EE000A84ED041AC4ED050AC4ED061A9F
:1021000084ED070A03B0BDEC0E8BBDE8F08FE06DE7
:10211000401C6AE7002110B5F0EE434A044604EE85
:10212000101A03EE901A03EE101AFFF73FFE94F810
:102130002C0001280AD194F85800002806D1204626
:10214000BDE810409FED020AFFF772BD10BD000010
:102150000000000010B52DED048BF0EE419AB0EEBA
:10216000609AF0EE408A00F0ADF800F0FDF8B0EEB5
:10217000408AF0EE692AB0EE492AF0EE681A00F0C3
:10218000A1F800F0F1F8F0EE400AB0EE480A07F0CE
:10219000F9F8DFED030ABDEC048B20EE200A10BD38
:1021A000E02E6542DFED020A20EE200A70470000B3
:1021B00035FA8E3C10EE100A9FED091A0749A1EB83
:1021C000600020EE010A00EE900A20EE201A9FED3A
:1021D000050A01EE600A20EE200A704712141F5F04
:1021E00012D3363FFF51D83F10B52DED088BB6EE18
:1021F000008AB0EE40AA01EE418A2AEE200AF0EEF3
:10220000609AB0EE419AF0EE618A01EE210AF0EE9A
:10221000480A49EEE90A07F0B5F8DFED1BAAB0EE6F
:10222000491AF0EE681A20EE2ABA2AEE010AF0EEF8
:10223000000A01EEE90A20EE200A10EE100A10F161
:10224000814F02D39FED110A09E010EE100AB0F1A0
:102250007E5F02DB9FED0E0A01E006F0FDFF60EEFF
:102260002ABA08EEE88A2AEE280A09EE890AF0EE70
:10227000480A07F087F820EE2A1AB0EE4B0AF0EE73
:102280006B0ABDEC088B10BDE02E6542DB0FC9BFA9
:10229000DB0FC93F30EE210A70EE820A31EE221ABE
:1022A0007047B0EE603A61EE210A63EE223A40EEEA
:1022B000620A41EE423A20EE021A03EE611AB0EED3
:1022C000630A7047B0EE603A61EE210A63EE223A8B
:1022D00040EE620A41EE423A20EE021A03EE611A23
:1022E000B0EE630A7047B5EEC00AF1EE10FA0BD1FA
:1022F000F5EEC00AF1EE10FA06D1B5EEC01AF1EE15
:1023000010FA01D1012070470020704720EE000A2A
:1023100060EEA00A21EE011A30EE200A30EE010A2A
:10232000704720EE210A60EEA10A21EE211A7047C3
:1023300010B52DED048BF0EE418AB0EE608AB0EE60
:10234000409AFFF7E3FFFFF735FFF0EE401AB0EEDB
:10235000681AF0EE480AB0EE490ABDEC048BBDE8FD
:102360001040FFF7DEBF000060EE001A20EEA02A4A
:1023700061EE012A0E4971EE821A71EEA21ADFEDAA
:102380000D2A11EE900A61EEA21AA1EB600002EE96
:10239000100A61EE822ADFED081A42EEC21A61EEDF
:1023A000821A20EE210A60EEA10A21EE211A70475E
:1023B00012141F5F12D3363FFF51D83F10B51C488F
:1023C000DDE90541A2B2B0F9003052BA438012B241
:1023D000240C028064BA84808CB264BAC48009146C
:1023E00001720146D31A41F66414B1F91810E342A0
:1023F00001DA491C04E041F66414A34201DD491EE0
:102400000183B0F9181000EE102A00EE901A9FED2B
:10241000091AB8EEC00AF8EEE00A00EE810ABDEE35
:10242000C00A80ED050A818B491C818310BD000024
:102430009C4B00200000004638B500210091044963
:10244000002302460C6919460248A04738BD000027
:10245000C40300209007002010B51C48DDE90541A9
:10246000A2B2B0F9003052BA438012B2240C0280FA
:1024700064BA84808CB264BAC480091401720146C3
:10248000D31A41F66414B1F91810E34201DA491C79
:1024900004E041F66414A34201DD491E0183B0F952
:1024A000181000EE102A00EE901A9FED091AB8EEEF
:1024B000C00AF8EEE00A00EE810ABDEEC00A80ED27
:1024C000050A818B491C818310BD00007C4B0020D4
:1024D0000000004638B5002100910449034600225F
:1024E0000C6911460248A04738BD0000C403002013
:1024F00068070020184810B5006880471748006832
:1025000080471748006880471648FFF75BFB16486E
:10251000FFF758FB1548416815488847154800687B
:102520008047154840F285121449036814489847BB
:10253000144C012114482268904722680221134854
:102540009047134800688047124800688047BDE8FC
:102550001040002009F08EB8A8030020FC000020E5
:1025600030030020704C0020584A00201403002043
:10257000C4090020B80300209C030020E44C002084
:10258000080A0020C40300206807002090070020EC
:10259000D8000020E400002010B558B1084C491EB6
:1025A0000BD310F8013B5340DBB234F8133083EA0D
:1025B0001222F4E74FF6FF7010BD104610BD000068
:1025C00014C4000810B5054C04E000BF10F8013B2E
:1025D0005340E25C491EF9D2104610BD14C30008F6
:1025E00010B52D482E492F4C02782C489FED2E1AFD
:1025F000DFED2E0AD1ED031A94ED030A012A2AD049
:10260000002A27D1B0F91620F8EEE11A02EE102ABE
:10261000F0EE082AB8EEC00AB8EEC22A42EE221A3C
:102620009FED232AFDEEE11AC1ED031AB0F918005F
:1026300001EE900AF8EEE11A01EEC20ABDEEC00A00
:1026400084ED030AB8EEC00A06F06DFDBDEEC00AC7
:1026500084ED030A10BDB0F922209FED163A02EE78
:10266000102AF8EEE11AB8EEC00AF8EEC22A82EE9D
:10267000832ADFED112A71EEC21AFDEEE11AC1EDD7
:10268000031AB0F9240001EE900AB8EEE12AC2EE76
:10269000221A31EE800AD1E7C800002060490020EC
:1026A0007C4B00209C4B00200000A0450040CE4504
:1026B000CDCCCC3D0000164300009643044941F6C2
:1026C000FA10C860034941F2A860C8607047000072
:1026D0007C4B00209C4B00202DE9F041984D044696
:1026E0002DED028B4FF000080068934F934E95ED4F
:1026F000050A9FED948AC8B101287DD002287CD0BC
:1027000003287ED185ED030AA5F81A80A7F81A8060
:10271000B1688D488847B1688C488847B1688C4853
:102720008847B1688B488847032002E1606808B198
:1027300085ED030A8848408CE0B1F8EEC00A824873
:10274000C4ED020A95ED030A3168B8EEC00A884765
:1027500084ED030AB5F904003168404200EE900AA6
:102760007A48F8EEE00A8847BDEEC00A10EE100A7B
:10277000688321E0B5F9000000EE100AB8EEC00A47
:10278000FFF702FAF0EE400A3168B0EE480A6E48F0
:10279000884784ED030AB5F904003168404200EE31
:1027A000900A6A48F8EEE00A8847BDEEC00A10EECB
:1027B000100A68836869E860B7F9000000EE100A43
:1027C0006348F8EEC00AC4ED040A97ED030A3168C5
:1027D000B8EEC00A884784ED050AB7F904003168ED
:1027E00000EE900A5B48F8EEE00A8847BDEEC00AAA
:1027F00010EE100A788302E007E048E001E0C4F838
:102800000480BDEC028BBDE8F0816068012801D036
:1028100085ED030AF8EEC00A4B48C4ED020A95EDB7
:10282000030A3168B8EEC00A884784ED030AB5F997
:1028300004003168404200EE900A4448F8EEE00A95
:102840008847BDEEC00A10EE100A6883B7F9000091
:1028500000EE100A3E48F8EEC00AC4ED040A97EDF7
:10286000030A3168B8EEC00A884784ED050AB7F953
:102870000400316800EE900A3648F8EEE00A884716
:10288000BDEEC00A10EE100A7883012051E03348F3
:102890006168DFED330A90ED1C0A022907D080EE53
:1028A000201A31EE081ABDEEC11A85ED031A80EE2A
:1028B000201A254831EE080ABDEEC00AF8EEC00A1B
:1028C000C4ED020A95ED030A3168B8EEC00A8847E4
:1028D00084ED030AB5F904003168404200EE900A25
:1028E0001A48F8EEE00A8847BDEEC00A10EE100A5A
:1028F0006883B7F9000000EE100A1548F8EEC00A28
:10290000C4ED040A97ED030A3168B8EEC00A88479F
:1029100084ED050AB7F90400316800EE900A0D480D
:10292000F8EEE00A8847BDEEC00A10EE100A788380
:102930000220606065E700009C4B0020FC02002044
:102940007C4B002000D0CF45AC010020E4010020EA
:102950001C0200205402002060490020C0490020D1
:102960000000343DF0B590F820500468A468012DB3
:1029700005D0022D03D0416A41F480215DE014F0BE
:10298000406F01D1E50055D5C4F30164022C03D991
:10299000416A41F4000150E00125A5401D608D68A9
:1029A0004FF4C0739DB1CE6835434E6845EAC60505
:1029B000066803EB0417F5514FF4C275076805EB81
:1029C00004150E697E51097D012905D009E00E88A4
:1029D000CD6845EA4655EBE701684E5946F48076E6
:1029E0004E511179D579567941EA056195792D04D1
:1029F00045EA062529434FF4C676056806EB04161A
:102A0000A9511178D57841EA0561957852782D045D
:102A100045EA022211434FF4C475026805EB041520
:102A20005151006803EB0411425842F00102425038
:102A30000020F0BD416A41F4001141620120F0BD67
:102A400010B590F82020012A07D0022A05D0416A4B
:102A500041F480214162012010BD3B48D0F80022A2
:102A600042F00102C0F80022D0F8002222F47C5289
:102A7000C0F80022D0F800224B6A42EA0322C0F8D4
:102A800000220A7D02F01F0301229A40D0F81C3276
:102A90009343C0F81C32CB69B3B9D0F80C329343DE
:102AA000C0F80C328C894B6864F31F434C6900EB0F
:102AB000C404C4F840320C890B6864F31F434C69AA
:102AC00000EBC404C4F84432CB69012B16D1D0F812
:102AD0000C321343C0F80C320C884B6864F31F436C
:102AE0004C6900EBC404C4F840320C89CB6864F331
:102AF0001F434C6900EBC404C4F844328B69002BBB
:102B0000D0F804320ED01343C0F804320B69002B06
:102B1000D0F8143208D01343C0F81432096A0129DE
:102B200004D008E09343EFE79343F5E7D0F81C1295
:102B30001143C0F81C12D0F8001221F00101C0F8B6
:102B40000012002010BD00000064004030B590F875
:102B50002040012C05D0022C03D0416A41F4802191
:102B60005DE00468002955D02469A40754D04FF4CF
:102B7000D874056804EB01142D5915F0040595600F
:102B800005682D594ED0ED08556005682C5904F0A4
:102B90000204D4604FF4DA74056804EB01142D5973
:102BA00005F00F05156105682D59C5F307259561D9
:102BB00005682C59240C54614FF4DC72046802EB54
:102BC0000112A4581C700468A458240A5C7004689C
:102BD000A458240C9C700468A258120EDA704FF4AA
:102BE000DE72046802EB0112A4581C710468A45838
:102BF000240A5C710468A458240C9C710468A258CF
:102C0000120EDA71006881B1016941F020010161A1
:102C1000002030BDE468A8E7416A41F40011416238
:102C2000012030BD6D0D1560AFE7C16841F0200196
:102C3000C160EDE770B5040003D094F8200010B136
:102C400004E0012070BD204600F082F82068016891
:102C500041F00101016000F0EBFB0546052604E0B0
:102C600000F0E6FB401B0A2811D820684068C00726
:102C7000F6D02068016821F00201016000F0D8FB65
:102C800005460BE000F0D4FB401B0A2806D9606A19
:102C900040F40030606284F82060D2E72068406829
:102CA0008007EFD4207E0128206801683DD021F004
:102CB00080010160607E01282068016838D021F021
:102CC00040010160A07E01282068016833D021F016
:102CD00020010160E07E0128206801682ED041F0CB
:102CE00010010160207F01282068016829D021F0AF
:102CF00008010160607F01282068016824D021F06C
:102D000004010160D4E902010843D4E9041211432B
:102D100008436168491E08432168C8610020606259
:102D2000012084F82000002070BD41F08001C0E740
:102D300041F04001C5E741F02001CAE721F0100150
:102D4000CFE741F00801D4E741F00401D9E70000E2
:102D5000F0B587B0044614216846FDF7EFFA364B0C
:102D60003648DFF8D0E01968D4F800C0334A0325AC
:102D70000226092710300024491CF44522D119608D
:102D8000012907D1016841F000710160006800F07D
:102D900000700590106840F0080010601068CDE9E0
:102DA000005600F00800CDE9047069462448CDE9DA
:102DB000024500F01DFA00220621142000F00EFD4D
:102DC000142033E0DFF87CE0F44531D1D0F800C0C6
:102DD0004CF0806CC0F800C0D0F800C001290CF0A5
:102DE000806CCDF814C0196007D1016841F0007102
:102DF0000160006800F000700590106840F002006B
:102E00001060106802AB00F0020005904FF44050D3
:102E1000CDE9000683E8B00069460B4800F0E8F908
:102E200000220621402000F0D9FC402000F0C8FC20
:102E300007B0F0BD00640040280000203038024098
:102E4000000C0240006800400004024070B50446D7
:102E500090F82000012804D0606A40F400206062ED
:102E600018E0022084F820002068016821F00101A8
:102E7000016000F0DDFA05460EE000BF00F0D8FA70
:102E8000401B0A2808D9606A40F4003060620520BF
:102E900084F82000012070BD20684068C007EDD193
:102EA000606270BD2DE9F84304464FF00009CDF88B
:102EB000009063484FF41651A56D0068B0FBF1F720
:102EC0002E6894F85C10082000FA01F131420FD00E
:102ED00021680A6852070BD50A6822F004020A60CA
:102EE00094F85C108840A860606D40F00100606557
:102EF00094F85C104FF0010808FA01F0304208D055
:102F000021684969090604D5A860606D40F0020097
:102F1000606594F85C1004208840304208D0216835
:102F20000968890704D5A860606D40F004006065F9
:102F300094F85C1010208840304218D0216809684D
:102F4000090714D5A86020680168490304D5006802
:102F5000000308D5A16C07E00168C90503D4016826
:102F600021F008010160216C09B12046884794F8DE
:102F70005C1020208840304231D021680968C906A1
:102F80002DD5A86094F8350005282068016806D082
:102F9000490347D5006800031DD4616C1CE021F093
:102FA000160101602068416921F080014161206CB7
:102FB00008B9A06C20B12068016821F00801016007
:102FC00094F85C103F208840A86084F8358084F82D
:102FD0003490216D1FE0E16B09B120468847606D98
:102FE00000282BD0606DC00714D0052084F8350070
:102FF0002068016821F0010101600098401C0090E8
:10300000B84203D820680068C007F6D184F835803C
:1030100084F83490E16C002910D001B02046BDE85E
:10302000F04308470168C905D5D4016821F01001B3
:10303000016084F8358084F83490CCE7BDE8F883EB
:10304000440000202DE9F041044600F0F1F9064665
:103050005CB1022084F83500002584F834502068E3
:10306000016821F0010101600DE00120BDE8F0815F
:1030700000F0DEF9801B052805D9202060650320BB
:1030800084F83500F2E720680068C007F0D12268B4
:10309000116820480140D4E901031843D4E90336FC
:1030A0003343184363691843A3691843E36918431A
:1030B000236A18430843616A042903D1D4E90B1336
:1030C00019430843106020684069666A20F00701D0
:1030D00030460E43012704280CD1A06A0643E06A5B
:1030E00040B12046FEF764FC20B14020606584F8C2
:1030F0003570BAE7206846612046FEF745FC94F833
:103100005C203F2191408160656584F83570002026
:10311000ACE700003F8010F070B5044690F8340032
:10312000002501280CD0012084F8340094F8356083
:103130000020012E06D084F834000225284670BDF8
:10314000022070BD022684F8356060652046FEF7D7
:1031500059FC2068016841F001010160EEE72DE9AA
:10316000F0410446866D90F83400002501280DD00A
:10317000012084F8340094F835700020012F07D026
:1031800084F8340002252846BDE8F0810220FBE7E0
:10319000022784F8357060652046FEF733FC94F80A
:1031A0005C103F208840B0602068016841F0160143
:1031B0000160206C20B12068016841F008010160C5
:1031C0002068016841F001010160DCE770B5044648
:1031D00000F02EF90546601C02D004480078044433
:1031E00000F026F9401BA042FAD370BD3800002041
:1031F0002DE9F84FDFF8F8A10022012403254FF054
:103200000F090AF1040BAAF1040E00BF0B6804FABF
:1032100002F63340B34270D10F7907F00307012F54
:1032200001D0022F16D187684FEA420805FA08FC40
:1032300027EA0C07D1F80CC00CFA08FC4CEA070C82
:10324000C0F808C04768B7430E79C6F30016964029
:103250003E4346600E79F643B6070AD0C7684FEA88
:10326000420C05FA0CF6B7438E6806FA0CF63E439C
:10327000C6600E7906F00306022E10D1D60800EBC8
:103280008608D8F8206057074FEAD76C09FA0CF780
:10329000BE430F6907FA0CF73743C8F82070066879
:1032A0004FEA420C05FA0CF7BE430F7907F003070B
:1032B00007FA0CF7374307604E6816F4403F1CD0FE
:1032C0004C4E376847F480473760366822F0030772
:1032D00006F480460096484E07EB060CDCF80868BA
:1032E00097073F0F09FA07F826EA0806DFF80C816E
:1032F000404503D14FF0000841E072E0DFF8008163
:10330000404502D14FF0010839E0DFF8F880404530
:1033100002D14FF0020832E0DFF8EC80404502D1E4
:103320004FF003082BE0DFF8E480404502D14FF076
:10333000040824E0DFF8D880404502D14FF00508AA
:103340001DE0DFF8D080404502D14FF0060816E0BE
:10335000DFF8C480404502D14FF007080FE0DFF8E6
:10336000BC80404502D14FF0080808E0DFF8B0808B
:10337000404502D14FF0090801E04FF00A0808FA71
:1033800007F848EA0608CCF80888DAF800605746DB
:10339000D1F804C09E435FEACC2C00D51E433E60AA
:1033A000DBF800605F46D1F804C09E435FEA8C2CD6
:1033B00000D51E433E60DEF800607746D1F804C0B9
:1033C0009E435FEA8C3C00D51E433E60084F083F99
:1033D0003E68D1F804C09E435FEACC3C00D51E4352
:1033E0003E60521C102AFFF411AFBDE8F88F0000B8
:1033F000083C0140443802400030014000000240D7
:103400000004024000080240000C0240001002408C
:103410000014024000180240001C0240002002403C
:10342000002402400AB1816170470904FBE70000F3
:1034300001488068704700003800002090F83D2067
:10344000202A01D002207047242280F83D20026803
:10345000136823F0010313600268536A23F010031A
:1034600053620268536A0B43536201680A6842F070
:1034700001020A60202180F83D100020704790F87A
:103480003D20202A01D002207047242280F83D20D0
:103490000268136823F00103136003685A6A22F07C
:1034A0000F020A4391B2596201680A6842F00102B0
:1034B0000A60202180F83D100020704770B504009C
:1034C00025D094F83D00002520B984F83C502046D2
:1034D00000F0B8F8242084F83D002068016821F04D
:1034E000010101602068016841F400410160206829
:1034F000016821F40041016000F09CFF4D4A6168C1
:10350000914201D84C4900E04C49884201D2012047
:1035100070BD4B492368B0FBF1F15E6826F03F06B1
:103520000E435E606368934206D94FF49673594325
:103530004FF47A73B1FBF3F12368491C1E6A26F03D
:103540003F06314319626168914210D84900401E1C
:10355000B0FBF1F2521CC2F30B02042A01D2042088
:1035600022E0B0FBF1F0401CC0F30B001CE0A268AD
:10357000F2B301EBC10303EB0116431EB3FBF6F3F9
:103580005B1C43F480431B0549D092B301EBC1029D
:1035900002EB0111401EB0FBF1F0401CC0F30B0028
:1035A00040F4804040F400402168CA694CF6FF7343
:1035B0009A431043C861D4E90710014320680268A8
:1035C00022F0C00211430160D4E9030101432068E5
:1035D000826848F2FF339A4311438160D4E90501C0
:1035E00008432168CA6822F0FF021043C86001E066
:1035F0000EE016E02068016841F0010101602564D9
:10360000202084F83D00256384F83E50002070BDE2
:1036100001EB4106431EB3FBF6F35B1CB3E701204D
:10362000C2E701EB4101401EB0FBF1F0401CC0F3CA
:103630000B00B7E7A086010080841E0000093D0052
:1036400040420F0010B586B0044614216846FCF7CE
:1036500075FE1349206888421FD11248016841F065
:10366000200101600068122100F020000590032075
:10367000CDE900010121CDE9021004200490694642
:103680000948FFF7B5FD07481030016841F4800193
:103690000160006800F48000059006B010BD0000D5
:1036A000005800403038024000140240024881684F
:1036B0000278114481607047380000200B4810B533
:1036C000016841F400710160016841F480610160AA
:1036D000016841F480710160032000F09FF8002030
:1036E00000F006F800F050F8002010BD003C024049
:1036F00030B505461F4887B00024016841F010012D
:103700000160006806A900F01000009001A800F018
:103710006BFE0498A8B100F08DFE40001649174AD0
:10372000B0FBF1F11648491E026040F2E732C0E9F1
:103730000324C0E90114846101F054FA040003D0A9
:1037400015E000F077FEE9E70D4801F0A7FA040064
:103750000DD1362000F034F8102D07D20022294672
:10376000362000F03BF80748056000E0012407B070
:10377000204630BD4038024040420F00001000405B
:10378000CC0B00203C0000200C4882B0016841F4C2
:1037900080410160006800F4804000900748001FED
:1037A000016841F0805101600068002200F0805003
:1037B00000900F21901E02B000F010B84438024073
:1037C000002809DB00F01F02012191404009800020
:1037D00000F1E020C0F8001170470000F0B40E4B7B
:1037E0001B680C46C3F30223C3F10705042D00D95F
:1037F0000425191D072901D2002300E0DB1E012644
:1038000006FA05F1491E214099409E40761E164059
:103810003143F0BC05F00FBD0CED00E0064900F0AF
:10382000070208684FF6FF03184040EA0220034AE7
:1038300010430860704700000CED00E00000FA053E
:1038400070470068416200207047F0B50368586A0D
:1038500039B19C6A4FF4827600EB144400204D1E6F
:103860000AE040EA024098620FE006EB8007DF5969
:10387000401C04EB1744C0B2A842F6D344EA02400D
:103880004FF4807202EB810158500020F0BDD0F857
:10389000080504F049BB01EBC10200EB8202D0F83D
:1038A0000805D26C04F09EBA01EBC10200EB820263
:1038B000D0F80805D2F88C2204F0EFBAD0F8080549
:1038C00004F034BB0A0601F00F0101EBC10100EB6B
:1038D000810101D53C3101E001F51F71006805F05F
:1038E00069BA70B504460B0601F00F0000EBC00189
:1038F00004EB81014FF001024FF0000503D581F880
:103900003D203C3103E081F87D5201F51F710870C4
:1039100094F8BC04012808D084F8BC24206804F082
:1039200003FF84F8BC54002070BD022070BD70B548
:10393000044601F00F006268904201D9012070BD79
:103940000B0601F00F0101EBC10104EB81014FF007
:1039500001024FF0000503D581F83D203C3103E022
:1039600081F87D5201F51F718D70087094F8BC04C8
:10397000012808D084F8BC24206805F0D1F884F828
:10398000BC54002070BD022070BD01F00F0101EB9E
:10399000C10100EB8100D0F89C0270472DE9F04195
:1039A00004460F0601F00F0000EBC00104EB81019B
:1039B0004FF001064FF0000503D581F83D603C3122
:1039C00003E081F87D5201F51F710870CA600B7128
:1039D0004A7802B10881022B00D14D7194F8BC04E1
:1039E000012809D084F8BC64206804F0F5FD28465D
:1039F00084F8BC54BDE8F0810220FBE770B50C46AA
:103A000001F00F0505EBC50100EB8101C1F894320F
:103A1000C1F88C220023C1F89C3281F87D3281F8F4
:103A20007C52036901F51F71012B00D14A61220705
:103A3000027C006803D005F0CBF8002070BD04F0D4
:103A4000B5FFFAE770B504460D4601F00F00616856
:103A5000884201D9012070BD29064FF000064FF0C1
:103A6000010207D500EBC00104EB810181F83D2084
:103A70003C3107E005EBC50104EB810181F87D6273
:103A800001F51F718A70087094F8BC04012807D0F2
:103A900084F8BC24206805F06FF8280702D007E0FE
:103AA000022070BD217C04F2C442206805F00CF8AD
:103AB00084F8BC64002070BD70B50C4601F00F05A1
:103AC00005EBC50100EB81014B65CA640023CB65A2
:103AD000012381F83D3001F83C5F0369012B00D1DF
:103AE0004A612207027C006803D005F071F80020CB
:103AF00070BD04F05BFFFAE72DE9FC5F0568044642
:103B0000284605F0F8F900287DD1206805F01FFA55
:103B1000002878D0D5F80808C0F30D20C4F8FC04BC
:103B2000206805F014FA800704D52068416901F087
:103B300002014161206805F00AFAC10604F2C4409E
:103B4000009034D52068816921F0100181612F6ACD
:103B500007F00F0000EBC00004EB8006C7F3434002
:103B600006F51F76022802D0062811D01AE047F683
:103B7000F070074216D0C7F30A121746284631697B
:103B800005F0E9F9306938443061306A384408E0BA
:103B900008222846009905F0DEF9306AC7F30A11B9
:103BA000084430622068816941F010018161206819
:103BB00005F0CDF900034FF0080B4FF0000A4FF06D
:103BC00001097CD50026206805F0A0F9074674E0BD
:103BD000F80770D0F1B2206805F0B1F98046C0074F
:103BE00007D005EB4611C1F8089B3146204602F08C
:103BF00059FB5FEA087024D505EB4611C1F808BBF4
:103C00002068016C00E025E200EB46100191D0F83D
:103C1000082BFC4B994205D9110403D54FF4004100
:103C2000C0F8081B204600F005FBF64901988842C1
:103C300007D92069012804D120680121009A04F0E5
:103C400043FF5FEAC86004D505EB46111020C1F8B8
:103C5000080B5FEA88701DD56869000605D5D5F8A0
:103C6000040840F48061C5F8041806EBC60004EBB4
:103C7000800090F87F1200F51F70012905D180F8AF
:103C800003A0F1B2204600F0EBF905EB461102204B
:103C9000C1F8080B5FEA886004D505EB46102021C7
:103CA000C0F8081B5FEA884005D505EB46104FF4C5
:103CB0000051C0F8081B7F08761C002F88D12068AF
:103CC00005F045F940036FD5206805F018F907465F
:103CD000002667E0F80763D0F1B2206805F01DF90F
:103CE0008046C00723D006F00F0209FA02F0D5F88B
:103CF00034288243C5F8342805EB4610C0F80899EB
:103D0000206901280FD106EBC60004EB8000D0E942
:103D100012211144C16436B9606D20B920680121B7
:103D2000009A04F0D1FEF1B22046FFF7B4FD5FEA3D
:103D3000087003D505EB4611C1F808B95FEAC86001
:103D400004D505EB46111020C1F808095FEA486068
:103D500004D505EB46104021C0F808195FEA8870C9
:103D600017D53146284605F099F806EBC60004EB56
:103D7000800090F83F103C30012905D180F803A065
:103D8000F1B2204600F068F905EB46110220C1F8B7
:103D900008095FEA086003D53146204602F0E8FAD8
:103DA0007F08761C002F95D1206805F0D0F80028F8
:103DB00011DAD5F8040820F00101C5F8041894F8C8
:103DC000F40401282BD0204600F018FA206841693D
:103DD00001F000414161206805F0B9F800050BD5FC
:103DE000D5F80808C00702D0204600F04BFA20683A
:103DF000416901F400614161206805F0A8F8C00440
:103E000066D5D5F8040820F00100C5F80408102193
:103E1000206805F043F800214FF67F321FE084F858
:103E2000F4A400212046FFF70BFDCFE705EB41107E
:103E3000C0F80829D0F8003923F40013C0F800397D
:103E4000C0F8082BD0F8003B23F40013C0F8003B67
:103E5000D0F8003B43F00063C0F8003B491C6068A9
:103E60008842E3D8D5F81C0840F00111C5F81C18A9
:103E7000206B002828460DD0D0F8840840F00B01B4
:103E8000C5F88418D5F8440840F00B012846C5F859
:103E900044180DE0D0F8140842F22B010843C5F88D
:103EA0001408D5F8100840F00B012846C5F8101882
:103EB000D0F8000820F4FE61C5F80018217C2068C5
:103EC000009A04F001FE2068416901F480514161CB
:103ED000206805F03CF8800415D5206804F0BCFB90
:103EE000206804F0FBFFE06000F09EFA0146227BB0
:103EF000206805F08FF8204600F06AF920684169D3
:103F000001F400514161206805F021F8000707D550
:103F1000204600F077F92068416901F0080141610D
:103F2000206805F014F8000616D5A86920F0800076
:103F3000A86101260DE000BF06EBC60004EB80007F
:103F400090F87F02012803D1F1B22046FFF7BAFCB6
:103F5000761C6068B042EFD8206804F0F8FFC00219
:103F600021D501264F4616E005EB4610D0F8001982
:103F700006EBC60004EB800090F84020012A09D12E
:103F8000002907DA80F83F70F0B240F08001204647
:103F9000FFF798FC761C6068B042E5D8206841695C
:103FA00001F480114161206804F0D1FF800234D512
:103FB00001204B4629E000BF05EB4011D1F8001B62
:103FC00000EBC00204EB820696F88022012A1BD186
:103FD000002919DA94F8FC2401F4803102F001027E
:103FE000914211D186F87F32A96941F08002AA611D
:103FF0006969090608D4D5F8040840F40070C5F8CA
:10400000040805E00A30544F401C61688142D3D84F
:104010002068416901F400114161206804F097FFB4
:10402000400007D52046FFF732FC2068416901F0C7
:1040300080414161206804F08AFF40070AD520686A
:104040004568680702D52046FFF738FC20684168BC
:1040500029434160BDE8FC9FD0F8080503F0BABFD2
:10406000D0F8080503F0CABF2DE9F0418AB004007A
:1040700005D094F8BD042668002520B108E0012091
:104080000AB0BDE8F08184F8BC54204600F05EF828
:10409000032084F8BD04F06BC00500D425612068BE
:1040A00004F07EFC04F11001282288466846FCF7E3
:1040B0002CF994E80F0004F0DDFA0226C8BB0021B9
:1040C000206804F067FF002001270EE000EBC0012C
:1040D00004EB810181F83D7001F83C0F08810D71FE
:1040E000CD600D61401CC0B28D6161688142EDD828
:1040F000002011E000EBC00104EB810181F87D524A
:1041000081F87C0281F88052C1F88852C1F88C5243
:10411000401CC0B2C1F8945261688142EAD828229A
:1041200041466846FCF7F1F894E80F0004F07EFB86
:1041300010B184F8BD64A2E784F8385084F8BD74E7
:10414000206804F065FB00209AE7000010B586B0F7
:10415000044614216846FCF7F1F82068B0F1A04F3E
:104160002FD119480021026842F001020260006864
:1041700000F0010005904FF4C05000900220CDE9FE
:104180000101032003900A20049069460F48FFF7BD
:104190002FF80D48001D016841F0800101600A48B8
:1041A0001430016841F4804101600068002200F48D
:1041B0008040059005214320FFF710FB4320FFF7C7
:1041C000FFFA06B010BD0000303802400000024087
:1041D00070B50446C068012570B1022801D0FDF712
:1041E000D0FC2946D4F8080503F076FFD4F808057A
:1041F000BDE8704003F02BBF0025F2E7D0F80805BA
:1042000003F053BFD0F8080503F059BF10B50446BA
:1042100090F8BC0401280BD0012084F8BC0484F879
:104220003810206804F0E4FE002084F8BC0410BDBF
:10423000022010BDD0F8082500F2C441104603F05A
:1042400057BF10B50446006894F8BC14012906D085
:10425000012184F8BC14A16A012902D008E00220DF
:1042600010BDA169012903D0816B41F480318163C4
:10427000206804F0EEFD206804F0BCFA002084F809
:10428000BC0410BD10B50446D0F8080503F072FF59
:104290002068D0F8001E41F00101C0F8001E206A1D
:1042A000002804D00248016841F00601016010BDF9
:1042B00010ED00E02DE9F0470E46050065D0DFF86F
:1042C0001481D8F80000F7B200F00F00B04207D216
:1042D00088F80070D8F8000000F00F00B04254D108
:1042E00028683D4C810712D5400703D5206840F46B
:1042F000E05020602878000703D5206840F4604033
:1043000020602068A96820F0F00008432060287829
:10431000C0072DD0304968680839012812D002281A
:1043200013D0032811D00968890700292DDA2168E4
:1043300021F0030101432160FFF77AF8814641F241
:10434000883A0EE009688903EFE709688901ECE71C
:10435000FFF76EF8A0EB0901514502D90320BDE833
:10436000F0872068696800F00C00B0EB810FEFD196
:10437000D8F80010404601F00F01B14207D907708C
:10438000006800F00F00B04201D00120E7E7287874
:10439000400705D52068E96820F4E0500843206014
:1043A0002878000706D52068296920F4604040EA93
:1043B000C100206000F05EF82168084AC1F30311D3
:1043C000515CC8400649086006480068FFF790F94C
:1043D0000020C4E7003C024008380240C8C2000880
:1043E000440000203C0000200F2202600C4A1368A9
:1043F00003F003034360136803F0F0038360136862
:1044000003F4E053C36012684FF4E05303EAD202AE
:1044100002610448006800F00F0008607047000067
:1044200008380240003C0240014800687047000024
:10443000440000200448054900680968044AC1F3A3
:104440008221515CC8407047440000200838024077
:10445000D8C200080448054900680968044AC1F345
:104460004231515CC8407047440000200838024087
:10447000D8C20008154810B5006810F00C021448A6
:1044800013D01449042A0FD0082A0ED10F4C241F30
:104490002268236802F03F025B0207D52068C0F360
:1044A0008810A0FB010106E0084610BD2168C1F399
:1044B0008811A1FB00010023FBF7F6FE2168C1F380
:1044C0000141491C4900B0FBF1F010BD0838024021
:1044D0000024F400001BB7002DE9F84F04006ED053
:1044E0002078DFF84C93C007A9F104054AD009F100
:1044F00004000168C1F38101012908D00068C0F3FC
:10450000810002280AD1D9F80000400206D52868A7
:10451000800337D560680028E1D033E06068B0F5EB
:10452000803F10D0B0F5A02F286810D020F4803044
:104530002860286820F4802028606068A8B1FEF711
:1045400077FF06460DE0286840F48030F4E740F439
:1045500080202860F7E700BFFEF76AFF801B642811
:1045600073D828688003F7D50CE0FEF761FF064694
:1045700005E000BFFEF75CFF801B6428F0D82868C8
:104580008003F7D42078DFF8AC8280074FF0000A70
:104590003ED5A748001D016811F00C0F08D0006837
:1045A000C0F3810002280BD1D9F80000400207D4E3
:1045B0002868800716D5E068012800D112E033E1B1
:1045C000E068B8B10120C8F80000FEF731FF0646E8
:1045D00005E000BFFEF72CFF801B0228C0D828682A
:1045E0008007F7D52868216920F0F80040EAC1006B
:1045F00028600DE0C8F800A0FEF71AFF064604E0A8
:10460000FEF716FF801B02281FD828688007F7D402
:104610002078000722D5864F87486169703771B1CD
:1046200001210160FEF704FF064604E0FEF700FFEB
:10463000801B022809D838688007F7D50EE0C0F83B
:1046400000A0FEF7F5FE064605E082E0FEF7F0FE6C
:10465000801B02287DD838688007F7D4207840076F
:1046600068D5DFF8CCB100270BF13C0BDBF800007C
:10467000C0000BD4DBF8001041F08051CBF80010E3
:10468000DBF80000012700F0805000906B4E30688E
:10469000C00510D4306840F480703060FEF7C8FE6A
:1046A000009005E0FEF7C4FE0099401A022850D899
:1046B0003068C005F6D55E4EA0686C3601280FD074
:1046C0000528306810D020F001003060306820F0FC
:1046D00004003060A068B8B1FEF7AAFE00900FE0B9
:1046E000306840F00100F4E740F004003060F7E784
:1046F000FEF79EFE0099411A41F28830814266D849
:1047000030688007F4D50EE0FEF792FE009007E0D7
:10471000FEF78EFE0099411A41F28830814256D848
:1047200030688007F4D42FB1DBF8001021F08051FD
:10473000CBF80010A069C8B33D49091D0968C1F351
:10474000810102294AD00228504607D0C8F86000EB
:1047500000E03CE0FEF76CFE04463BE04746C8F84C
:104760006000FEF765FE064605E000BFFEF760FE4E
:10477000801B02282BD828688001F7D4D4E90701D0
:104780000843A16A2E4A490802EB0141626A41EAE4
:104790008211084394F82C1040EA0161C9F8001016
:1047A00001203866FEF744FE044606E03EE000BF06
:1047B000FEF73EFE001B022809D828688001F7D5C5
:1047C00034E000BFFEF734FE001B022802D90320AC
:1047D000BDE8F88F28688001F4D427E00128F7D0DD
:1047E000D9F80000E26900F4800191421CD1226AEC
:1047F00000F03F01914217D147F6C071626A014053
:10480000B1EB821F10D1A26A4FF0FF3300F44031A8
:1048100003EB5202B1EB024F06D194F82C1000F0DA
:104820007060B0EB016F01D00120D1E70020CFE72D
:104830000438024000004742800E474200700040AA
:104840000000FFFF70B5040009D0606A002540B188
:1048500025616561A56294F8510040B10CE001202A
:1048600070BD6068B0F5827FF4D0E561F2E784F84E
:104870005050204600F044F8022084F8510020688F
:10488000016821F040010160A088218900F4827054
:1048900001F404410843A18901F400610843217C2B
:1048A00001F002010843217D01F001010843218B41
:1048B00001F400710843217F01F03801084394F8A6
:1048C000201001F080010843218D01F400510843BC
:1048D00021680860A069042101EA104094F82410BE
:1048E00001F010010843216848602068C16921F483
:1048F0000061C1616565012084F85100002070BD30
:1049000010B586B0044614216846FBF717FD14491C
:104910002068884221D113480021026842F48012A5
:104920000260006800F4801005900E481438026898
:1049300042F020020260006800F0200005904FF471
:10494000607000900220CDE9010103200390052052
:10495000049069460448FEF74BFC06B010BD000009
:104960000050014044380240001402402DE9F84F45
:10497000044690F8500000270A9E1D4692468B463A
:104980004FF0010901280ED0012084F85000FEF7F5
:104990004FFD804694F85100616801280CD0B1F5B4
:1049A000827F07D102E00220BDE8F88FA16809B933
:1049B000042801D00227C2E0BBF1000F27D0BAF1D2
:1049C000000F24D01DB394F85100042802D0052014
:1049D00084F8510000206065C4F838A0E587A587F9
:1049E000C4F830B0E586A58620646064206801685C
:1049F000490603D4016841F040010160E068B0F568
:104A0000006F606805D0E8B3012D46D07FE0012734
:104A100095E008B1012D39D1206B21680088C8606C
:104A2000206B801C2063E08E401EE0862EE0206814
:104A3000816889070FD5E18E69B1B9F1010F0AD1FB
:104A4000216B0988C160206B801C2063E08E401EB2
:104A5000E0864FF0000920688168C9070CD0E18F1B
:104A600051B1C068A16B0880A06B801CA063E08F6F
:104A7000401EE0874FF00109FEF7DAFCA0EB0800CA
:104A8000B04200E009E001D3701C50D1E08E002854
:104A9000CDD1E08F0028CAD13FE0206B216800789B
:104AA0000873206B401C2063E08E401EE0862EE0E1
:104AB0002068816889070FD5E18E69B1B9F1010FCE
:104AC0000AD1216B09780173206B401C2063E08EB2
:104AD000401EE0864FF0000920688168C9070CD0AD
:104AE000E18F51B1C068A16B0870A06B401CA0633E
:104AF000E08F401EE0874FF00109FEF799FCA0EB24
:104B00000800B04202D3701C01D010E07EB1E08EEC
:104B10000028CDD1E08F0028CAD142463146204638
:104B200001F016FF28B101272020606507E0032768
:104B300005E0A06818B92068C1688068009001206D
:104B400084F85100002084F8500038462CE7704764
:104B50007047000070B590F83C20012A32D0012443
:104B600080F83C40022280F83D2003685A689D6826
:104B700022F070060A6832435A60134B02689A4268
:104B800014D0B2F1804F11D0104B9A420ED0104B7E
:104B90009A420BD00F4B9A4208D00F4B9A4205D045
:104BA0000E4B9A4202D00E4B9A4204D1496825F02E
:104BB00080031943916080F83D40002180F83C104B
:104BC000084670BD022070BD000001400004004096
:104BD00000080040000C004000040140004001407B
:104BE0000018004010B5040003D094F83D0010B147
:104BF00007E0012010BD002084F83C00204600F0B2
:104C00001FF8022084F83D00211D206802F09AF868
:104C1000012084F8460084F83E0084F83F0084F8C0
:104C2000400084F8410084F8420084F8430084F88E
:104C3000440084F8450084F83D00002010BD0000C9
:104C400008B5124A01681248914207D1016841F043
:104C500002010160006800F0020009E00D4A914283
:104C600008D1016841F020010160006800F02000D7
:104C7000009008BD084A9142FBD1016841F0400113
:104C80000160006800F04000F2E70000000400400E
:104C900040380240001400400018004090F83D10D9
:104CA000012901D001207047022180F83D100168E0
:104CB000CA6842F00102CA6000681149884214D0F3
:104CC000B0F1804F11D00F4988420ED00E49884272
:104CD0000BD00E49884208D00D49884205D00D49B5
:104CE000884202D00C49884204D1816801F0070152
:104CF000062903D0016841F00101016000207047DE
:104D0000000001400004004000080040000C00408A
:104D100000040140004001400018004070B5044606
:104D200090F83C000025012817D0012684F83C604B
:104D3000022084F83D002068826822F0770222F485
:104D40007F4282600868502838D00DDC20284FD080
:104D500005DC90B3102811D14AE0022070BD302844
:104D600046D040280AD13BE060282FD070280DD0D3
:104D7000B0F5805F03D0B0F5005F12D0012584F854
:104D80003D60002084F83C00284670BDCB68D1E926
:104D90000121206802F047F82068816841F077011E
:104DA00009E0CB68D1E90121206802F03CF82068D5
:104DB000816841F480418160E1E719E0CA6849688F
:104DC000206802F005F95021206806E0CA684968A9
:104DD000206802F00EF96021206802F02EF8CEE77C
:104DE000CA684968206802F0F3F840212068F4E7B7
:104DF000226801461046F0E7704770B50446006827
:104E000001694FF00005C943890715D4C168C9433A
:104E1000890711D4E91E016101202077206880698B
:104E20008007204602D0FFF7E7FF04E000F0DAF841
:104E3000204600F06CF9257720680169C9434907CD
:104E400017D4C168C943490713D46FF00401016145
:104E5000022020772068806910F4407F204602D02D
:104E6000FFF7CAFF04E000F0BDF8204600F04FF95C
:104E7000257720680169C943090716D4C168C94369
:104E8000090712D46FF0080101610420207720681F
:104E9000C0698007204602D0FFF7AEFF04E000F0B3
:104EA000A1F8204600F033F9257720680169C9434D
:104EB000C90617D4C168C943C90613D46FF01001DD
:104EC0000161082020772068C06910F4407F2046E7
:104ED00002D0FFF791FF04E000F084F8204600F0D4
:104EE00016F9257720680169C943C90708D1C16847
:104EF000C943C90704D1891E0161204600F06CF93D
:104F000020680169C943090609D4C168C943090673
:104F100005D46FF0800101612046FFF718FE20687C
:104F20000169C943490609D4C168C943490605D482
:104F30006FF040010161204600F06CF920680169C2
:104F4000C94389060BD4C168C943890607D46FF0E9
:104F5000200101612046BDE87040FFF7F9BD70BD3A
:104F600010B586B0044614216846FBF7E7F92368BC
:104F7000174C002117480222A34210D1036843F0C6
:104F800002030360006800F00200059020200090FA
:104F9000CDE90121CDE9031269460F4813E00F4C1A
:104FA000A34212D1036843F080030360006800F05D
:104FB0008000059040200090CDE901210920CDE935
:104FC000031069460648FEF713F906B010BD00004D
:104FD0000004004030380240000402400018004045
:104FE000001C0240704770B5044690F83C00002653
:104FF0000D4601280FD0012084F83C006AB1042A34
:105000001DD0082A2FD00C2A3FD00126002084F87A
:105010003C00304670BD022070BD206801F016FFD4
:105020002068816941F0080181612068816921F06F
:1050300004018161206881692A69114311E02068B7
:1050400001F034FF2068816941F4006181612068CA
:10505000816921F480618161206881692A6941EA5E
:1050600002218161D2E7206801F056FF2068C16902
:1050700041F00801C1612068C16921F00401C161EA
:105080002068C1692A69114311E0206801F078FFA6
:105090002068C16941F40061C1612068C16921F4DF
:1050A0008061C1612068C1692A6941EA0221C16148
:1050B000ACE710B5040003D094F83D0010B107E050
:1050C000012010BD002084F83C00204600F01EF8AE
:1050D000022084F83D00211D206801F033FE0120EC
:1050E00084F8460084F83E0084F83F0084F84000CD
:1050F00084F8410084F8420084F8430084F84400B6
:1051000084F8450084F83D00002010BD70477047CA
:1051100010B50446022249B104290ED0082913D043
:1051200094F84100012816D0012010BD94F83E00EB
:105130000128F9D184F83E200FE094F83F000128BF
:10514000F2D184F83F2008E094F840000128EBD128
:1051500084F8402001E084F841200122206801F019
:1051600055FE16492068164A884201D0904203D164
:10517000436C43F4004343642068884213D0B0F189
:10518000804F10D00F4988420DD00F4988420AD075
:105190000E49884207D0904205D00D49884202D07E
:1051A0000C49884204D1816801F00701062903D027
:1051B000016841F001010160002010BD00000140C4
:1051C000000401400004004000080040000C0040C2
:1051D000004001400018004010B5044600680A492C
:1051E000884201D1FEF762FA08492068884209D155
:1051F000FEF75CFA064801684268491C42F1000269
:105200000160426010BD000000100040001400402A
:105210003000002070477047704770B5040004D01C
:1052200094F83D00002510B106E0012070BD84F81F
:105230003C50204600F022F8242084F83D002068ED
:10524000C16821F40051C160204602F097F820683F
:10525000016921F4904101612068416921F02A012E
:1052600041612068C16841F40051C160256420207B
:1052700084F83D0084F83E00002070BD2DE9F04F19
:1052800087B0054614216846FBF758F89248DFF8C6
:1052900044821038D5F800C0DFF83CA20222032176
:1052A0000823DFF838E20024061587154FF0206B3D
:1052B000C44559D1DAF80080A14648F08048CAF8C0
:1052C0000080DAF800C00CF0804CCDF814C0D0F8A3
:1052D00000C04CF0100CC0F800C0006800F01000D6
:1052E0000590CDE90313C8018DE8150069467046A5
:1052F000FDF77EFFDFF8ECA179495046D84602C0A1
:10530000E0E802B44FF4003BE0E8034640F8044C08
:1053100080E890085046CAF82440FDF793FE08B193
:10532000FCF72FFC6F4C6E486034C5F838A030385D
:10533000CAF83850C4E900084020A060C4E90396C8
:1053400004F118014846C4F8149081E88108204609
:10535000C4F82490FDF776FE08B1FCF712FC6C63EC
:10536000A56307B0BDE8F08FDFF87C81C4451BD191
:10537000DAF8006046F00046CAF80060DAF800503B
:1053800005F000450595056845F0100505600068C5
:1053900000F0100005908DE81600CDE90313694672
:1053A0007046FDF725FFDCE7DFF84081DFF8289144
:1053B000C44509F1040944D1D9F800C04CF0100CDF
:1053C000C9F800C0D9F8003003F010030593036852
:1053D00043F002030360006800F002000590C02063
:1053E000CDE900020120CDE90201072004906946C1
:1053F0003F48FDF7FDFEDFF8EC803E4908F1C008AC
:105400004046C8F800104FF00061C0E90114C0E93F
:105410000346C8F81440C0E90647C8F82040C8F859
:105420002440FDF70FFE08B1FCF7ABFBC5F8388050
:10543000002205212520C8F83850FEF7CFF9252095
:1054400045E0DFF8B480C4458BD1D9F8008048F03E
:105450002008C9F80080D9F800C00CF0200CCDF865
:1054600014C0D0F800C04CF0400CC0F800C0006878
:1054700000F040000590CDE903134FF484408DE81F
:10548000150069461D48FDF7B3FE1A49DFF8708024
:1054900018394046C8F80010C0E901B4C0E9034615
:1054A000C8F81440C0E90647C8F82040C8F82440AE
:1054B000FDF7C8FD08B1FCF764FBC5F83880002291
:1054C00005214720C8F83850FEF788F94720FEF735
:1054D00077F946E70078004040380240001002406B
:1054E000586002404C0A0020007C0040001001403F
:1054F00000040240406402400014014000180240D1
:105500006C0B002090F83E30202B0ED159B152B1D7
:1055100090F83C30012B08D0012380F83C30002368
:10552000036301F0B1BF0120704702207047000003
:10553000022202490248FFF7E5BF0000F44E0020B6
:105540003C0900207047000070B5044690F83D000B
:10555000202836D191B38AB394F83C00012830D08A
:10556000012084F83C002162A284E28400252564A5
:10557000212084F83D00636B1348D863636B1348A4
:105580001864636B1248D864606B1346056526681F
:10559000606B321DFDF7E3FD21686FF0400008608D
:1055A00084F83C502068143050E8001F41F080011E
:1055B00040E80012002AF5D1002070BDFFE701206D
:1055C000FBE70220F9E70000C77200080973000832
:1055D000E1710008022202490248FFF7B5BF00004E
:1055E000F64E00203C0900207047FEE710B5302140
:1055F0006A20FBF721FC0A20FDF7E8FD0D2124209D
:10560000FBF71AFC0A20FDF7E1FD0E212820FBF72D
:1056100013FC0A20FDF7DAFD8E213120FBF70CFC8C
:105620000A20FDF7D3FD01210B2000F09BF80A2092
:10563000FDF7CCFD002000F059F8102801D0012022
:1056400010BD01210B2000F08DF80A20FDF7BEFDF2
:1056500000210A2000F086F80A2000F047F808B17F
:10566000022010BD0A20FDF7B1FD00210B2000F043
:1056700079F80B2000F03AF808B1032010BD0A2099
:10568000FDF7A4FD2421412000F06CF8412000F03A
:105690002DF8242801D0042010BD0A20FDF796FD26
:1056A000C021422000F05EF8422000F01FF8C02820
:1056B00001D0052010BD0A20FDF788FD00212A2019
:1056C000FBF7BAFB0A20FDF781FD00213420FBF730
:1056D000B3FB0A20FDF77AFD062203210E20FBF71B
:1056E00019FA6420FDF772FD002010BDF8B50146DF
:1056F0003220FBF7A1FB0A20FDF768FD8021342052
:10570000FBF79AFB0A20FDF761FD134E00224021B2
:105710003046FDF787FE114CB52037252070621CFE
:105720000123511E0E480095FFF720F9621C01234A
:10573000511E0B480095FFF719F901224021304610
:10574000FDF770FE647800213420FBF775FB0A201A
:10575000FDF73CFD2046F8BD001402404403002044
:105760000C08002070B50D46044600212A20FBF7E6
:1057700063FB0220FDF72AFD21462920FBF75CFB95
:105780000220FDF723FD29466420FBF755FB02208C
:10579000FDF71CFD81212A20FBF74EFBBDE8704080
:1057A0000A20FDF713BD10B5044680EC020A70EE26
:1057B000600AD0ED031AC0ED041A90ED021A80EDD4
:1057C000031AC0ED020A30EEC10A90ED052A20EE60
:1057D000020AB0EE002A80ED080A90ED060A20EEDB
:1057E000200A41EE420A80ED090A94ED071A70EE94
:1057F000A10A60EE810AC4ED0A0AD4ED0D0AB1EEE9
:10580000601A03F090FC84ED090AD4ED080A30EE2A
:10581000800AD4ED0A0A30EE200A84ED0B0AD4ED9A
:105820000D0AB1EE601AD4ED0C0A03F07CFC84ED95
:105830000B0A10BDF0B500230A24302537261F4679
:1058400011E000BFB4EB107F02D905EB107C01E042
:1058500006EB107C01F813C001EB430C00015B1C4C
:105860008CF80170DBB29342ECD3F0BD2DE9F0412E
:1058700004462DED028BB7EE008A9FED3E0AD0ED77
:10588000012A90ED021AD0ED030A32EEC13ADFEDA3
:105890003A1AB3EE032A3A4A00EEA13A23EE023A4C
:1058A00080ED073A32EE813A00EEA13A23EE023A59
:1058B00080ED083A31EE623AF1EE622A002032EED3
:1058C000C11A00EEA13A00EEA11ADFED2E1A23EE66
:1058D000023A61EE020A84ED093A9FED281AC4EDFE
:1058E0000A0A00BF04EB8001D1ED070A60EE810ACD
:1058F000C1ED070AF0EEE00AF4EEC00AF1EE10FA8C
:1059000001DDB0EE600A10EE101A914201DD81EE69
:10591000808A401C0428E5DB1B4FDFF870800025DF
:1059200004EB850007EB451690ED070A20EE080A08
:1059300080ED070ABDEEC00A10EE100A00B23082F8
:10594000B6F9041000EE101AD8F80010F8EEC00AEC
:1059500000EE100A0E48B8EEC00A8847BDEEC00A35
:105960006D1C042D10EE100A7083D9DBBDEC028B88
:10597000BDE8F08100000000C3F5A83E0000C84269
:1059800000A00C4600A00C46BC4A0020FC020020EF
:105990003C0100200248017801734178417370474F
:1059A000F44E002010B5022205490648FFF7AAFD73
:1059B00003490222BDE81040891C0248FFF7C4BD1C
:1059C000F44E00203C090020064801210279521CB7
:1059D000027141718179891C8171827041F00201EB
:1059E000C1707047F44E0020002101704170817039
:1059F000704781780122491CC9B24B1E8170092B66
:105A000001D8027070470A29FCD900210170427048
:105A10007047000010B55D4C94F82A00C10704F1EE
:105A20002C0002D0FFF7E5FF01E0FFF7DDFF94F85F
:105A30002A008107554800F12F0002D5FFF7D9FF52
:105A400001E0FFF7D1FF94F82A0041074F4800F129
:105A5000320002D5FFF7CDFF01E0FFF7C5FF94F854
:105A60002A000107494800F1350002D5FFF7C1FFC0
:105A700001E0FFF7B9FF94F82A00C106434800F19E
:105A8000380002D5FFF7B5FF01E0FFF7ADFF94F84E
:105A90002A0081063D4800F13B0002D5FFF7A9FF2F
:105AA00001E0FFF7A1FF94F82A004106374800F112
:105AB0003E0002D5FFF79DFF01E0FFF795FF94F848
:105AC0002A000106314800F1410002D5FFF791FF9D
:105AD00001E0FFF789FF608DC1052C4800F144000B
